{
  "contractName": "Factory",
  "abi": [
    {
      "anonymous": false,
      "inputs": [
        {
          "indexed": false,
          "name": "eventCalled",
          "type": "string"
        }
      ],
      "name": "lendingPoolCalled",
      "type": "event"
    },
    {
      "constant": false,
      "inputs": [
        {
          "name": "upgradeCircuit",
          "type": "address[]"
        },
        {
          "name": "amount",
          "type": "uint256"
        }
      ],
      "name": "setCircuit",
      "outputs": [
        {
          "name": "didSucceed",
          "type": "bool"
        }
      ],
      "payable": false,
      "stateMutability": "nonpayable",
      "type": "function"
    }
  ],
  "bytecode": "0x60806040527389d24a6b4ccb1b6faa2625fe562bdd9a232603596000806101000a81548173ffffffffffffffffffffffffffffffffffffffff021916908373ffffffffffffffffffffffffffffffffffffffff16021790555034801561006457600080fd5b506107d0806100746000396000f3fe608060405234801561001057600080fd5b506004361061002b5760003560e01c806319c6181414610030575b600080fd5b6100b16004803603604081101561004657600080fd5b810190808035906020019064010000000081111561006357600080fd5b82018360208201111561007557600080fd5b8035906020019184602083028401116401000000008311171561009757600080fd5b9091929391929390803590602001909291905050506100cb565b604051808215151515815260200191505060405180910390f35b600080738ac14ce57a87a07a2f13c1797efeee8c0f8f571a905060008173ffffffffffffffffffffffffffffffffffffffff16630261bf8b6040518163ffffffff1660e01b815260040160206040518083038186803b15801561012d57600080fd5b505afa158015610141573d6000803e3d6000fd5b505050506040513d602081101561015757600080fd5b81019080805190602001909291905050509050600086868660405161017b90610349565b80806020018381526020018281038252858582818152602001925060200280828437600081840152601f19601f820116905080830192505050945050505050604051809103906000f0801580156101d6573d6000803e3d6000fd5b50905060008190508273ffffffffffffffffffffffffffffffffffffffff16639d9638a1826000809054906101000a900473ffffffffffffffffffffffffffffffffffffffff16896040518463ffffffff1660e01b8152600401808473ffffffffffffffffffffffffffffffffffffffff1673ffffffffffffffffffffffffffffffffffffffff1681526020018373ffffffffffffffffffffffffffffffffffffffff1673ffffffffffffffffffffffffffffffffffffffff1681526020018281526020019350505050600060405180830381600087803b1580156102ba57600080fd5b505af11580156102ce573d6000803e3d6000fd5b505050507f6a60b3ccee87999f079fa262d8863e342337b21aca05fc7225afeec47eaacdbf6040518080602001828103825260138152602001807f4c656e64696e6720706f6f6c2063616c6c65640000000000000000000000000081525060200191505060405180910390a160019450505050509392505050565b61044e806103578339019056fe608060405234801561001057600080fd5b5060405161044e38038061044e8339810180604052604081101561003357600080fd5b81019080805164010000000081111561004b57600080fd5b8281019050602081018481111561006157600080fd5b815185602082028301116401000000008211171561007e57600080fd5b50509291906020018051906020019092919050505081600190805190602001906100a99291906100b1565b50505061017e565b82805482825590600052602060002090810192821561012a579160200282015b828111156101295782518260006101000a81548173ffffffffffffffffffffffffffffffffffffffff021916908373ffffffffffffffffffffffffffffffffffffffff160217905550916020019190600101906100d1565b5b509050610137919061013b565b5090565b61017b91905b8082111561017757600081816101000a81549073ffffffffffffffffffffffffffffffffffffffff021916905550600101610141565b5090565b90565b6102c18061018d6000396000f3fe60806040526004361061001e5760003560e01c80638b514f8c14610023575b600080fd5b34801561002f57600080fd5b506100866004803603606081101561004657600080fd5b81019080803573ffffffffffffffffffffffffffffffffffffffff169060200190929190803590602001909291908035906020019092919050505061009c565b6040518082815260200191505060405180910390f35b60007fe170d44da8c271746b85d8a381e51deb0721ad350a4a0415f564fe3d690d1dc86040518080602001828103825260148152602001807f466c617368206c6f616e2065786563757465642e00000000000000000000000081525060200191505060405180910390a17389d24a6b4ccb1b6faa2625fe562bdd9a2326035973ffffffffffffffffffffffffffffffffffffffff1663a9059cbb738ac14ce57a87a07a2f13c1797efeee8c0f8f571a856040518363ffffffff1660e01b8152600401808373ffffffffffffffffffffffffffffffffffffffff1673ffffffffffffffffffffffffffffffffffffffff16815260200182815260200192505050602060405180830381600087803b1580156101b557600080fd5b505af11580156101c9573d6000803e3d6000fd5b505050506040513d60208110156101df57600080fd5b810190808051906020019092919050505050610204828461020d90919063ffffffff16565b90509392505050565b60008082840190508381101561028b576040517f08c379a000000000000000000000000000000000000000000000000000000000815260040180806020018281038252601b8152602001807f536166654d6174683a206164646974696f6e206f766572666c6f77000000000081525060200191505060405180910390fd5b809150509291505056fea165627a7a72305820657106a0ac75eb377da50c63c14b826ae303966863dcbfe690a9e542203428a60029a165627a7a72305820fbc9a0f2cc1ba87c67b81edfc9e472211e48d1c016544e40764f97e952772a710029",
  "source": "pragma solidity^0.5.0;\n\nimport \"@openzeppelin/contracts/token/ERC20/IERC20.sol\";\nimport \"./IArbRail.sol\";\nimport \"./SafeMath.sol\";\nimport \"./IFlashLoanReceiver.sol\";\nimport \"./LendingPoolAddressesProvider.sol\";\n\ninterface ILendingPool {\n  function addressesProvider () external view returns ( address );\n  function deposit ( address _reserve, uint256 _amount, uint16 _referralCode ) external payable;\n  function redeemUnderlying ( address _reserve, address _user, uint256 _amount ) external;\n  function borrow ( address _reserve, uint256 _amount, uint256 _interestRateMode, uint16 _referralCode ) external;\n  function repay ( address _reserve, uint256 _amount, address _onBehalfOf ) external payable;\n  function swapBorrowRateMode ( address _reserve ) external;\n  function rebalanceFixedBorrowRate ( address _reserve, address _user ) external;\n  function setUserUseReserveAsCollateral ( address _reserve, bool _useAsCollateral ) external;\n  function liquidationCall ( address _collateral, address _reserve, address _user, uint256 _purchaseAmount, bool _receiveAToken ) external payable;\n  function flashLoan ( address _receiver, address _reserve, uint256 _amount ) external;\n  function getReserveConfigurationData ( address _reserve ) external view returns ( uint256 ltv, uint256 liquidationThreshold, uint256 liquidationDiscount, address interestRateStrategyAddress, bool usageAsCollateralEnabled, bool borrowingEnabled, bool fixedBorrowRateEnabled, bool isActive );\n  function getReserveData ( address _reserve ) external view returns ( uint256 totalLiquidity, uint256 availableLiquidity, uint256 totalBorrowsFixed, uint256 totalBorrowsVariable, uint256 liquidityRate, uint256 variableBorrowRate, uint256 fixedBorrowRate, uint256 averageFixedBorrowRate, uint256 utilizationRate, uint256 liquidityIndex, uint256 variableBorrowIndex, address aTokenAddress, uint40 lastUpdateTimestamp );\n  function getUserAccountData ( address _user ) external view returns ( uint256 totalLiquidityETH, uint256 totalCollateralETH, uint256 totalBorrowsETH, uint256 availableBorrowsETH, uint256 currentLiquidationThreshold, uint256 ltv, uint256 healthFactor );\n  function getUserReserveData ( address _reserve, address _user ) external view returns ( uint256 currentATokenBalance, uint256 currentUnderlyingBalance, uint256 currentBorrowBalance, uint256 principalBorrowBalance, uint256 borrowRateMode, uint256 borrowRate, uint256 liquidityRate, uint256 originationFee, uint256 variableBorrowIndex, uint256 lastUpdateTimestamp, bool usageAsCollateralEnabled );\n  function getReserves () external view;\n}\n\ncontract Factory {\n\t/// Hardcode more addresses here\n\taddress daiAddress = 0x89d24A6b4CcB1B6fAA2625fE562bDD9a23260359;\n\tevent lendingPoolCalled(string eventCalled);\n\t\n\t// Function to called by webjs\n\tfunction setCircuit(address[] calldata upgradeCircuit, uint256 amount) external returns (bool didSucceed) {\n\t\t// Call flash loan, uses dai as base lending address provider\n\t\tLendingPoolAddressesProvider provider = LendingPoolAddressesProvider(0x8Ac14CE57A87A07A2F13c1797EfEEE8C0F8F571A);\n\t\tILendingPool lendingPool = ILendingPool(provider.getLendingPool());\n\n\t\t// Create child contract\n\t\tFicient loanContract = new Ficient(upgradeCircuit, amount);\n\t\taddress ficientAddress = address(loanContract);\n\n\t\t/// flashLoan method call \n\t\tlendingPool.flashLoan(ficientAddress, daiAddress, amount);\n\t\temit lendingPoolCalled(\"Lending pool called\");\n\t\treturn true;\n\t}\n}\n\ncontract Ficient is IFlashLoanReceiver {\n  using SafeMath for uint256;\n  uint256 feePercent;\n  address[] circuitToExecute;\n  event loanCalled(string called);\n\n  constructor(address[] memory circuit, uint256 amount) public {\n\tcircuitToExecute = circuit;\n  }\n\n  function executeOperation(address _reserve, uint256 _amount, uint256 _fee) external returns (uint256 returnedAmount) {\n\t// Execute trades\n\temit loanCalled(\"Flash loan executed.\");\n\t\n \tIERC20(0x89d24A6b4CcB1B6fAA2625fE562bDD9a23260359).transfer(0x8Ac14CE57A87A07A2F13c1797EfEEE8C0F8F571A, _amount);\n\t// transferFundsBackToPoolInternal(0x8Ac14CE57A87A07A2F13c1797EfEEE8C0F8F571A, amount.add(1));\n\treturn _amount.add(_fee);\n  }\n\n  function () payable external {\n    revert();\n  }\n}\n",
  "sourcePath": "/hmdb/work/repo/ficient/contracts/Ficient.sol",
  "compiler": {
    "name": "solc",
    "version": "0.5.8+commit.23d335f2.Emscripten.clang"
  },
  "schemaVersion": "3.0.17",
  "updatedAt": "2019-11-03T14:05:44.739Z",
  "networkType": "ethereum",
  "devdoc": {
    "methods": {}
  },
  "userdoc": {
    "methods": {}
  }
}