{
  "contractName": "Ficient",
  "abi": [
    {
      "inputs": [
        {
          "name": "amount",
          "type": "uint256"
        }
      ],
      "payable": false,
      "stateMutability": "nonpayable",
      "type": "constructor"
    },
    {
      "anonymous": false,
      "inputs": [
        {
          "indexed": false,
          "name": "called",
          "type": "string"
        }
      ],
      "name": "loanCalled",
      "type": "event"
    },
    {
      "constant": false,
      "inputs": [
        {
          "name": "_reserve",
          "type": "address"
        },
        {
          "name": "_amount",
          "type": "uint256"
        },
        {
          "name": "_fee",
          "type": "uint256"
        }
      ],
      "name": "executeOperation",
      "outputs": [
        {
          "name": "returnedAmount",
          "type": "uint256"
        }
      ],
      "payable": false,
      "stateMutability": "nonpayable",
      "type": "function"
    }
  ],
  "bytecode": "0x608060405234801561001057600080fd5b5060405160208061032b8339810180604052602081101561003057600080fd5b810190808051906020019092919050505080600081905550506102d3806100586000396000f3fe608060405234801561001057600080fd5b506004361061002b5760003560e01c80638b514f8c14610030575b600080fd5b6100866004803603606081101561004657600080fd5b81019080803573ffffffffffffffffffffffffffffffffffffffff169060200190929190803590602001909291908035906020019092919050505061009c565b6040518082815260200191505060405180910390f35b60007fe170d44da8c271746b85d8a381e51deb0721ad350a4a0415f564fe3d690d1dc86040518080602001828103825260148152602001807f466c617368206c6f616e2065786563757465642e00000000000000000000000081525060200191505060405180910390a173ff795577d9ac8bd7d90ee22b6c1703490b6512fd73ffffffffffffffffffffffffffffffffffffffff1663a9059cbb73af4ef1a755f05dd9d68e9e53f111eb63b05fb1fd61015e858761021f90919063ffffffff16565b6040518363ffffffff1660e01b8152600401808373ffffffffffffffffffffffffffffffffffffffff1673ffffffffffffffffffffffffffffffffffffffff16815260200182815260200192505050602060405180830381600087803b1580156101c757600080fd5b505af11580156101db573d6000803e3d6000fd5b505050506040513d60208110156101f157600080fd5b810190808051906020019092919050505050610216828461021f90919063ffffffff16565b90509392505050565b60008082840190508381101561029d576040517f08c379a000000000000000000000000000000000000000000000000000000000815260040180806020018281038252601b8152602001807f536166654d6174683a206164646974696f6e206f766572666c6f77000000000081525060200191505060405180910390fd5b809150509291505056fea165627a7a7230582058a26bf6f847e61d152069b08ce7bdfe9b70cb987a8887c2003ab272971b9c140029",
  "source": "pragma solidity^0.5.0;\n\nimport \"@openzeppelin/contracts/token/ERC20/IERC20.sol\";\nimport \"./IArbRail.sol\";\nimport \"./SafeMath.sol\";\nimport \"./IFlashLoanReceiver.sol\";\nimport \"./LendingPoolAddressesProvider.sol\";\n\ninterface ILendingPool {\n  function addressesProvider () external view returns ( address );\n  function deposit ( address _reserve, uint256 _amount, uint16 _referralCode ) external payable;\n  function redeemUnderlying ( address _reserve, address _user, uint256 _amount ) external;\n  function borrow ( address _reserve, uint256 _amount, uint256 _interestRateMode, uint16 _referralCode ) external;\n  function repay ( address _reserve, uint256 _amount, address _onBehalfOf ) external payable;\n  function swapBorrowRateMode ( address _reserve ) external;\n  function rebalanceFixedBorrowRate ( address _reserve, address _user ) external;\n  function setUserUseReserveAsCollateral ( address _reserve, bool _useAsCollateral ) external;\n  function liquidationCall ( address _collateral, address _reserve, address _user, uint256 _purchaseAmount, bool _receiveAToken ) external payable;\n  function flashLoan ( address _receiver, address _reserve, uint256 _amount ) external;\n  function getReserveConfigurationData ( address _reserve ) external view returns ( uint256 ltv, uint256 liquidationThreshold, uint256 liquidationDiscount, address interestRateStrategyAddress, bool usageAsCollateralEnabled, bool borrowingEnabled, bool fixedBorrowRateEnabled, bool isActive );\n  function getReserveData ( address _reserve ) external view returns ( uint256 totalLiquidity, uint256 availableLiquidity, uint256 totalBorrowsFixed, uint256 totalBorrowsVariable, uint256 liquidityRate, uint256 variableBorrowRate, uint256 fixedBorrowRate, uint256 averageFixedBorrowRate, uint256 utilizationRate, uint256 liquidityIndex, uint256 variableBorrowIndex, address aTokenAddress, uint40 lastUpdateTimestamp );\n  function getUserAccountData ( address _user ) external view returns ( uint256 totalLiquidityETH, uint256 totalCollateralETH, uint256 totalBorrowsETH, uint256 availableBorrowsETH, uint256 currentLiquidationThreshold, uint256 ltv, uint256 healthFactor );\n  function getUserReserveData ( address _reserve, address _user ) external view returns ( uint256 currentATokenBalance, uint256 currentUnderlyingBalance, uint256 currentBorrowBalance, uint256 principalBorrowBalance, uint256 borrowRateMode, uint256 borrowRate, uint256 liquidityRate, uint256 originationFee, uint256 variableBorrowIndex, uint256 lastUpdateTimestamp, bool usageAsCollateralEnabled );\n  function getReserves () external view;\n}\n\ncontract Factory {\n\t/// Hardcode more addresses here\n\taddress daiAddress = 0xFf795577d9AC8bD7D90Ee22b6C1703490b6512FD;\n\tevent lendingPoolCalled(string eventCalled);\n\t\n\t// Function to called by webjs\n\tfunction setCircuit(uint256 amount) external returns (bool didSucceed) {\n\t\t// Call flash loan, uses dai as base lending address provider\n\t\tLendingPoolAddressesProvider provider = LendingPoolAddressesProvider(0x9C6C63aA0cD4557d7aE6D9306C06C093A2e35408);\n\t\tILendingPool lendingPool = ILendingPool(provider.getLendingPool());\n\n\t\t// Create child contract\n\t\tFicient loanContract = new Ficient(amount);\n\t\taddress ficientAddress = address(loanContract);\n\n\t\t/// flashLoan method call \n\t\tlendingPool.flashLoan(ficientAddress, daiAddress, amount);\n\t\temit lendingPoolCalled(\"Lending pool called\");\n\t\treturn true;\n\t}\n}\n\ncontract Ficient is IFlashLoanReceiver {\n  using SafeMath for uint256;\n  uint256 feePercent;\n  address[] circuitToExecute;\n  event loanCalled(string called);\n\n  constructor(uint256 amount) public {\n\tfeePercent = amount;\n  }\n\n  function executeOperation(address _reserve, uint256 _amount, uint256 _fee) external returns (uint256 returnedAmount) {\n\t// Execute trades\n\temit loanCalled(\"Flash loan executed.\");\n\t\n\t// Transfer reserve (aDai), recipient is lending pool core.\n \tIERC20(0xFf795577d9AC8bD7D90Ee22b6C1703490b6512FD).transfer(0xAf4Ef1a755F05DD9D68E9e53F111eb63b05fB1FD, _amount.add(_fee));\n\t// transferFundsBackToPoolInternal(0x8Ac14CE57A87A07A2F13c1797EfEEE8C0F8F571A, amount.add(1));\n\treturn _amount.add(_fee);\n  }\n}\n",
  "sourcePath": "/hmdb/work/repo/ficient/contracts/Ficient.sol",
  "compiler": {
    "name": "solc",
    "version": "0.5.8+commit.23d335f2.Emscripten.clang"
  },
  "schemaVersion": "3.0.17",
  "updatedAt": "2019-11-03T15:15:57.225Z",
  "devdoc": {
    "methods": {}
  },
  "userdoc": {
    "methods": {}
  }
}