{
  "contractName": "Ficient",
  "abi": [
    {
      "inputs": [
        {
          "name": "amount",
          "type": "uint256"
        }
      ],
      "payable": false,
      "stateMutability": "nonpayable",
      "type": "constructor"
    },
    {
      "anonymous": false,
      "inputs": [
        {
          "indexed": false,
          "name": "called",
          "type": "string"
        }
      ],
      "name": "loanCalled",
      "type": "event"
    },
    {
      "constant": false,
      "inputs": [
        {
          "name": "_reserve",
          "type": "address"
        },
        {
          "name": "_amount",
          "type": "uint256"
        },
        {
          "name": "_fee",
          "type": "uint256"
        }
      ],
      "name": "executeOperation",
      "outputs": [
        {
          "name": "returnedAmount",
          "type": "uint256"
        }
      ],
      "payable": false,
      "stateMutability": "nonpayable",
      "type": "function"
    }
  ],
  "bytecode": "0x608060405234801561001057600080fd5b506040516020806106b68339810180604052602081101561003057600080fd5b8101908080519060200190929190505050806000819055505061065e806100586000396000f3fe608060405234801561001057600080fd5b506004361061002b5760003560e01c80638b514f8c14610030575b600080fd5b6100866004803603606081101561004657600080fd5b81019080803573ffffffffffffffffffffffffffffffffffffffff169060200190929190803590602001909291908035906020019092919050505061009c565b6040518082815260200191505060405180910390f35b60007fe170d44da8c271746b85d8a381e51deb0721ad350a4a0415f564fe3d690d1dc86040518080602001828103825260148152602001807f466c617368206c6f616e2065786563757465642e00000000000000000000000081525060200191505060405180910390a16000739c6c63aa0cd4557d7ae6d9306c06c093a2e35408905060008173ffffffffffffffffffffffffffffffffffffffff1663ed6ff7606040518163ffffffff1660e01b815260040160206040518083038186803b15801561016757600080fd5b505afa15801561017b573d6000803e3d6000fd5b505050506040513d602081101561019157600080fd5b8101908080519060200190929190505050905060006101b9858761021990919063ffffffff16565b90506101fa8282731c4a937d171752e1313d70fb16ae2ea02f86303e73ffffffffffffffffffffffffffffffffffffffff166102a19092919063ffffffff16565b61020d858761021990919063ffffffff16565b93505050509392505050565b600080828401905083811015610297576040517f08c379a000000000000000000000000000000000000000000000000000000000815260040180806020018281038252601b8152602001807f536166654d6174683a206164646974696f6e206f766572666c6f77000000000081525060200191505060405180910390fd5b8091505092915050565b61036d838473ffffffffffffffffffffffffffffffffffffffff1663a9059cbb905060e01b8484604051602401808373ffffffffffffffffffffffffffffffffffffffff1673ffffffffffffffffffffffffffffffffffffffff16815260200182815260200192505050604051602081830303815290604052907bffffffffffffffffffffffffffffffffffffffffffffffffffffffff19166020820180517bffffffffffffffffffffffffffffffffffffffffffffffffffffffff8381831617835250505050610372565b505050565b6103918273ffffffffffffffffffffffffffffffffffffffff166105bd565b610403576040517f08c379a000000000000000000000000000000000000000000000000000000000815260040180806020018281038252601f8152602001807f5361666545524332303a2063616c6c20746f206e6f6e2d636f6e74726163740081525060200191505060405180910390fd5b600060608373ffffffffffffffffffffffffffffffffffffffff16836040518082805190602001908083835b60208310610452578051825260208201915060208101905060208303925061042f565b6001836020036101000a0380198251168184511680821785525050505050509050019150506000604051808303816000865af19150503d80600081146104b4576040519150601f19603f3d011682016040523d82523d6000602084013e6104b9565b606091505b509150915081610531576040517f08c379a00000000000000000000000000000000000000000000000000000000081526004018080602001828103825260208152602001807f5361666545524332303a206c6f772d6c6576656c2063616c6c206661696c656481525060200191505060405180910390fd5b6000815111156105b75780806020019051602081101561055057600080fd5b81019080805190602001909291905050506105b6576040517f08c379a000000000000000000000000000000000000000000000000000000000815260040180806020018281038252602a815260200180610609602a913960400191505060405180910390fd5b5b50505050565b60008060007fc5d2460186f7233c927e7db2dcc703c0e500b653ca82273b7bfad8045d85a47060001b9050833f91506000801b82141580156105ff5750808214155b9250505091905056fe5361666545524332303a204552433230206f7065726174696f6e20646964206e6f742073756363656564a165627a7a723058207d69e76c0f9e47c742bf4ece0830dc673644ace139ac58d2b1ae02ae709a505d0029",
  "source": "pragma solidity ^0.5.8;\n\nimport \"@openzeppelin/contracts/token/ERC20/IERC20.sol\";\nimport \"@openzeppelin/contracts/token/ERC20/SafeERC20.sol\";\nimport \"./IArbRail.sol\";\n// import \"./SafeMath.sol\";\nimport \"./IFlashLoanReceiver.sol\";\nimport \"./LendingPoolAddressesProvider.sol\";\n\ninterface ILendingPool {\n  function addressesProvider () external view returns ( address );\n  function deposit ( address _reserve, uint256 _amount, uint16 _referralCode ) external payable;\n  function redeemUnderlying ( address _reserve, address _user, uint256 _amount ) external;\n  function borrow ( address _reserve, uint256 _amount, uint256 _interestRateMode, uint16 _referralCode ) external;\n  function repay ( address _reserve, uint256 _amount, address _onBehalfOf ) external payable;\n  function swapBorrowRateMode ( address _reserve ) external;\n  function rebalanceFixedBorrowRate ( address _reserve, address _user ) external;\n  function setUserUseReserveAsCollateral ( address _reserve, bool _useAsCollateral ) external;\n  function liquidationCall ( address _collateral, address _reserve, address _user, uint256 _purchaseAmount, bool _receiveAToken ) external payable;\n  function flashLoan ( address _receiver, address _reserve, uint256 _amount ) external;\n  function getReserveConfigurationData ( address _reserve ) external view returns ( uint256 ltv, uint256 liquidationThreshold, uint256 liquidationDiscount, address interestRateStrategyAddress, bool usageAsCollateralEnabled, bool borrowingEnabled, bool fixedBorrowRateEnabled, bool isActive );\n  function getReserveData ( address _reserve ) external view returns ( uint256 totalLiquidity, uint256 availableLiquidity, uint256 totalBorrowsFixed, uint256 totalBorrowsVariable, uint256 liquidityRate, uint256 variableBorrowRate, uint256 fixedBorrowRate, uint256 averageFixedBorrowRate, uint256 utilizationRate, uint256 liquidityIndex, uint256 variableBorrowIndex, address aTokenAddress, uint40 lastUpdateTimestamp );\n  function getUserAccountData ( address _user ) external view returns ( uint256 totalLiquidityETH, uint256 totalCollateralETH, uint256 totalBorrowsETH, uint256 availableBorrowsETH, uint256 currentLiquidationThreshold, uint256 ltv, uint256 healthFactor );\n  function getUserReserveData ( address _reserve, address _user ) external view returns ( uint256 currentATokenBalance, uint256 currentUnderlyingBalance, uint256 currentBorrowBalance, uint256 principalBorrowBalance, uint256 borrowRateMode, uint256 borrowRate, uint256 liquidityRate, uint256 originationFee, uint256 variableBorrowIndex, uint256 lastUpdateTimestamp, bool usageAsCollateralEnabled );\n  function getReserves () external view;\n}\n\ncontract Factory {\n\t/// Hardcode more addresses here\n\taddress daiAddress = 0x1c4a937d171752e1313D70fb16Ae2ea02f86303e;\n\tevent lendingPoolCalled(string eventCalled);\n\t\n\t// Function to called by webjs\n\tfunction setCircuit(uint256 amount) external returns (bool didSucceed) {\n\t\t// Call flash loan, uses dai as base lending address provider\n\t\tLendingPoolAddressesProvider provider = LendingPoolAddressesProvider(0x9C6C63aA0cD4557d7aE6D9306C06C093A2e35408);\n\t\tILendingPool lendingPool = ILendingPool(provider.getLendingPool());\n\n\t\t// Create child contract\n\t\tFicient loanContract = new Ficient(amount);\n\t\taddress ficientAddress = address(loanContract);\n\n\t\t/// flashLoan method call \n\t\tlendingPool.flashLoan(ficientAddress, daiAddress, amount);\n\t\temit lendingPoolCalled(\"Lending pool called\");\n\t\treturn true;\n\t}\n}\n\ncontract Ficient is IFlashLoanReceiver {\n  using SafeMath for uint256;\n  using SafeERC20 for IERC20;\n\n  uint256 feePercent;\n  address[] circuitToExecute;\n  event loanCalled(string called);\n\n  constructor(uint256 amount) public {\n\tfeePercent = amount;\n  }\n\n  function executeOperation(address _reserve, uint256 _amount, uint256 _fee) external returns (uint256 returnedAmount) {\n\t// require(_amount <= getBalanceInternal(address(this), _reserve), \"Invalid balance for the contract\");\n\t// Execute trades\n\temit loanCalled(\"Flash loan executed.\");\n\tLendingPoolAddressesProvider addressesProvider = LendingPoolAddressesProvider(0x9C6C63aA0cD4557d7aE6D9306C06C093A2e35408);\n    address payable core = addressesProvider.getLendingPoolCore();\n\t\n\t// Transfer reserve (aDai), recipient is lending pool core.\n\tuint256 feeAmt = _amount.add(_fee);\n\t// core.transfer(feeAmt);\n \tIERC20(0x1c4a937d171752e1313D70fb16Ae2ea02f86303e).safeTransfer(core, feeAmt);\n\treturn _amount.add(_fee);\n  }\n}\n",
  "sourcePath": "/hmdb/work/repo/ficient/contracts/Ficient.sol",
  "compiler": {
    "name": "solc",
    "version": "0.5.8+commit.23d335f2.Emscripten.clang"
  },
  "schemaVersion": "3.0.17",
  "updatedAt": "2019-11-03T17:27:48.163Z",
  "devdoc": {
    "methods": {}
  },
  "userdoc": {
    "methods": {}
  }
}